:020000040000FA
:100000000C9491030C94B9030C94B9030C94B903A8
:100010000C94B9030C94B9030C94B9030C94B90370
:100020000C94B9030C94B9030C94B9030C94B90360
:100030000C94B9030C94B9030C94B9030C94B90350
:100040000C94D9150C94B9030C9449160C942316EE
:100050000C94B9030C94B9030C94B9030C94B90330
:100060000C947B160C94B90300000000003E5B4F1B
:100070005B3E3E6B4F6B3E1C3E7C3E1C183C7E3C08
:10008000181C577D571C1C5E7F5E1C00183C180016
:10009000FFE7C3E7FF0018241800FFE7DBE7FF30A6
:1000A000483A060E2629792926407F050507407F14
:1000B00005253F5A3CE73C5A7F3E1C1C08081C1C87
:1000C0003E7F14227F22145F5F005F5F06097F017D
:1000D0007F006689956A606060606094A2FFA29468
:1000E00008047E040810207E201008082A1C080836
:1000F0001C2A08081E101010100C1E0C1E0C303884
:100100003E3830060E3E0E06000000000000005F84
:1001100000000007000700147F147F14242A7F2AA0
:100120001223130864623649562050000807030062
:10013000001C2241000041221C002A1C7F1C2A08AE
:10014000083E080800807030000808080808000011
:1001500060600020100804023E5149453E00427F85
:10016000400072494949462141494D331814127FD4
:100170001027454545393C4A494931412111090774
:100180003649494936464949291E000014000000F5
:1001900040340000000814224114141414140041C7
:1001A00022140802015909063E415D594E7C121184
:1001B000127C7F494949363E414141227F414141BC
:1001C0003E7F494949417F090909013E4141517337
:1001D0007F0808087F00417F41002040413F017FA8
:1001E000081422417F404040407F021C027F7F0470
:1001F00008107F3E4141413E7F090909063E4151B9
:10020000215E7F09192946264949493203017F01A8
:10021000033F4040403F1F2040201F3F4038403FA9
:10022000631408146303047804036159494D4300BF
:100230007F4141410204081020004141417F0402F6
:10024000010204404040404000030708002054548D
:1002500078407F284444383844444428384444286B
:100260007F385454541800087E090218A4A49C78BE
:100270007F0804047800447D40002040403D007F1A
:100280001028440000417F40007C047804787C08FA
:100290000404783844444438FC18242418182424CE
:1002A00018FC7C08040408485454542404043F44B3
:1002B000243C4040207C1C2040201C3C4030403CE2
:1002C00044281028444C9090907C4464544C440042
:1002D00008364100000077000000413608000201A6
:1002E0000204023C2623263C1EA1A161123A404092
:1002F000207A38545455592155557941225454780F
:1003000042215554784020545579400C1E527212A7
:100310003955555559395454545939555454580030
:1003200000457C410002457D420001457C407D1234
:1003300011127DF0282528F07C5455450020545496
:100340007C547C0A097F4932494949323A44444441
:100350003A324A4848303A4141217A3A424020787C
:10036000009DA0A07D3D4242423D3D4040403D3C7D
:1003700024FF2424487E4943662B2FFC2F2BFF09A2
:1003800029F620C0887E0903205454794100004496
:100390007D413048484A32384040227A007A0A0A81
:1003A000727D0D19317D2629292F282629292926F4
:1003B00030484D4020380808080808080808382F39
:1003C00010C8ACBA2F102834FA00007B00000814C3
:1003D0002A142222142A14085500550055AA55AA99
:1003E00055AAFF55FF55FF000000FF00101010FF39
:1003F00000141414FF001010FF00FF1010F010F094
:10040000141414FC001414F700FF0000FF00FF1484
:1004100014F404FC141417101F10101F101F1414D0
:10042000141F00101010F0000000001F101010101A
:100430001F10101010F010000000FF10101010100E
:1004400010101010FF10000000FF140000FF00FF4C
:1004500000001F10170000FC04F4141417101714E8
:1004600014F404F40000FF00F7141414141414140A
:10047000F700F7141414171410101F101F1414147D
:10048000F4141010F010F000001F101F0000001FE7
:1004900014000000FC140000F010F01010FF10FF1A
:1004A000141414FF141010101F00000000F010FFAF
:1004B000FFFFFFFFF0F0F0F0F0FFFFFF0000000093
:1004C00000FFFF0F0F0F0F0F3844443844FC4A4A17
:1004D0004A347E02020606027E027E0263554941CC
:1004E000633844443C04407E201E2006027E020203
:1004F00099A5E7A5991C2A492A1C4C7201724C3017
:100500004A4D4D303048784830BC625A463D3E49ED
:100510004949007E0101017E2A2A2A2A2A44445F91
:10052000444440514A444040444A51400000FF0185
:1005300003E080FF000008086B6B08361236243693
:10054000060F090F060000181800000010100030F8
:1005500040FF0101001F01011E00191D1712003C80
:100560003C3C3C00000000002E89298F2B02E20059
:10057000E401E510E601E710E870F200EA00EB2084
:10058000EC3CEDC8E938F1011B1A1A022461255C24
:10059000183619011F88FF051F80FF051F90FF05F2
:1005A0001FD4FF05170536092838FF28283C02000C
:1005B0000300040005EF060007000801093F0100E1
:1005C000B903FF8357FFFAB30400000606B60125FE
:1005D000B00168CC0105B10600151C1C83AAC00639
:1005E0005050013C1E08B4070240002A2A0D783AF8
:1005F00001553601C0350100440200021100FF968A
:100600002900FF3200000100FF003200010000015C
:10061000020000070300301004000000080002027E
:10062000090000000A0000000C0000000D0000009E
:100630000F00000010000000110007001200000071
:1006400013000000FF00C8001000901611002702E0
:10065000FF00320012001A00FF00320013000018E1
:1006600029002A00FF0032003000000031000000A5
:100670003200000035000602360008083700070087
:1006800038000102390000003C0000003D0000007D
:100690002000000021000000500000005100EF0089
:1006A0005200000053003F01600000A761000300FA
:1006B0006A00000090001000920000009300030008
:1006C000950000119700000098000000070033011A
:1006D00000000000240027002A000000000800029B
:1006E00001000003040700000000000000000102F8
:1006F00004081020408001020408102001020408B0
:10070000102000000000250028002B000404040431
:1007100004040404020202020202030303030303AB
:10072000961711241FBECFEFD8E0DEBFCDBF11E07A
:10073000A0E0B1E0E0EBF5E402C005900D92A63E2A
:10074000B107D9F723E0A6EEB1E001C01D92AE33A8
:10075000B207E1F713E0C1E9D3E004C02197FE013D
:100760000E94CB22C039D107C9F70E9408190C9406
:10077000D6220C9400008AB18C6F8AB984B1836050
:1007800084B90895E1E1F3E0A2A1B3A18C9193A50E
:1007900089238C9300C000C000C0000099B183B1D0
:1007A000A2A1B3A12C9137A1232B2C939C7F837002
:1007B000892B0895CF92DF92EF92FF92CF93DF9330
:1007C000C1E1D3E0EC8DFD8D908128A5922390832B
:1007D000EE8DFF8D908129A5922390839BB193701C
:1007E000282F2C7F922B9BB995B19C7F8370892BEE
:1007F00085B9E8A1F9A180819AA589238083E8A120
:10080000F9A180819EA1892B80838AB183708AB9E6
:1008100084B18C7F84B9EE8DFF8D80819DA1892B61
:10082000808383EC90E00197F1F70E94C20390E08F
:10083000B0E0A0E0CC24D82EE92EFA2E0E94C2030C
:10084000C82AFE2CED2CDC2CCC240E94C203C82A22
:10085000FE2CED2CDC2CCC240E94C203C82AEC8D8B
:10086000FD8D80819CA1892B80830E94BB03C701E1
:10087000B601DF91CF91FF90EF90DF90CF90089578
:1008800090E0FC01E652F94F2491FC01E251F94F4E
:100890003491FC01E45FF84FE491EE23C9F0222388
:1008A00039F0233001F1A8F4213019F1223029F177
:1008B000F0E0EE0FFF1FEE5FF84FA591B4918FB7F8
:1008C000F894EC91611126C030953E233C938FBF84
:1008D00008952730A9F02830C9F0243049F78091D5
:1008E00080008F7D03C0809180008F77809380008F
:1008F000DFCF84B58F7784BDDBCF84B58F7DFBCF11
:100900008091B0008F778093B000D2CF8091B000FB
:100910008F7DF9CF3E2BDACFCF93DF9390E0FC01B0
:10092000E251F94F2491845F984FFC018491882310
:10093000D1F090E0880F991FFC01E053F94FA59189
:10094000B491FC01EE5FF84FC591D49161110EC0D6
:100950009FB7F8948C91E22FE0958E238C93288199
:10096000E223E8839FBFDF91CF9108958FB7F8947A
:10097000EC91E22BEC938FBFF6CF8E3008F08E50C7
:100980008770806480937C0080917A00806480937B
:100990007A0080917A0086FDFCCF8091780090915A
:1009A000790008953FB7F89480915C0290915D02C0
:1009B000A0915E02B0915F0226B5A89B05C02F3FB3
:1009C00019F00196A11DB11D3FBFBA2FA92F982F75
:1009D0008827BC01CD01620F711D811D911D42E070
:1009E000660F771F881F991F4A95D1F708958F9238
:1009F0009F92AF92BF92CF92DF92EF92FF926B01E4
:100A00007C010E94D2044B015C01C114D104E104B9
:100A1000F104B9F00E94D204681979098A099B0986
:100A2000683E73408105910580F321E0C21AD10828
:100A3000E108F10888EE880E83E0981EA11CB11C25
:100A4000E4CFFF90EF90DF90CF90BF90AF909F905A
:100A50008F900895E0912D03F0912E038081909165
:100A60003503892B8083E0913103F091320380813B
:100A700090913703892B8083E0913303F091340305
:100A8000808190913803892B808380913D03882356
:100A900071F060E00E94400462E070E080E090E06D
:100AA0000E94F70461E080913D030E944004E091C0
:100AB0002D03F0912E038081909139038923808347
:100AC000E0912F03F0913003808190913A038923C4
:100AD00080838BB183708BB985B18C7F85B9E091B0
:100AE0003103F0913203808190913B03892380830D
:100AF000E0913103F0913203808190913703892B8B
:100B0000808383E0E0913103F09132039081209162
:100B10003B0392239083E0913103F0913203908163
:100B200020913703922B9083815061F7E0912D0340
:100B3000F0912E03808190913503892B8083089555
:100B40000895AF92BF92CF92DF92EF92FF920F93F0
:100B50001F93CF93DF936C017B018B01040F151F53
:100B6000EB015E01AE18BF08C017D10759F06991BB
:100B7000D601ED91FC910190F081E02DC60109951F
:100B8000892B79F7C501DF91CF911F910F91FF90CC
:100B9000EF90DF90CF90BF90AF900895FC01538D00
:100BA000448D252F30E0842F90E0821B930B541747
:100BB00010F0CF96089501970895FC01918D828DD4
:100BC000981761F0A28DAE0FBF2FB11D5D968C916D
:100BD000928D9F5F9F73928F90E008958FEF9FEFAC
:100BE0000895FC01918D828D981731F0828DE80F68
:100BF000F11D858D90E008958FEF9FEF0895FC0122
:100C0000918D228D892F90E0805C9F4F821B9109EE
:100C10008F739927089580E692E00E94FF0521E0F6
:100C2000892B09F420E0822F089580E090E0892B41
:100C300029F00E940B0681110C9400000895FC011C
:100C4000A48DA80FB92FB11DA35ABF4F2C91848D2D
:100C500090E001968F739927848FA689B7892C938A
:100C6000A089B1898C91837080648C93938D848DDD
:100C7000981306C00288F389E02D80818F7D8083E0
:100C80000895EF92FF920F931F93CF93DF93EC01A0
:100C900081E0888F9B8D8C8D98131AC0E889F98923
:100CA000808185FF15C09FB7F894EE89FF89608326
:100CB000E889F98980818370806480839FBF81E0A7
:100CC00090E0DF91CF911F910F91FF90EF900895E9
:100CD000F62E0B8D10E00F5F1F4F0F731127E02EC4
:100CE0008C8D8E110CC00FB607FCFACFE889F989FC
:100CF000808185FFF5CFCE010E941F06F1CFEB8DDD
:100D0000EC0FFD2FF11DE35AFF4FF0829FB7F894CF
:100D10000B8FEA89FB8980818062CFCFCF93DF93ED
:100D2000EC01888D8823B9F0AA89BB89E889F98903
:100D30008C9185FD03C0808186FD0DC00FB607FC38
:100D4000F7CF8C9185FFF2CF808185FFEDCFCE016B
:100D50000E941F06E9CFDF91CF91089520910D02E7
:100D6000260F3327331F21323105ECF42091310255
:100D7000FC0190E080E0243069F082E00895A091C9
:100D80000D022191AC0143515E4FA40FB52FB11D4F
:100D90002C930196861798F380910D02680F60934B
:100DA0000D0280E0089581E008958FEF9FEF089590
:100DB0008FEF9FEF08958091E60190E091958195E6
:100DC00091090895CF93DF93CB01EA01642F0E942C
:100DD000AE06CE01DF91CF910895CF93DF931F929E
:100DE000CDB7DEB7698361E0CE0101960E94AE0601
:100DF00081E090E00F90DF91CF9108950895FC017C
:100E00006370668B8481958126813781613039F0EA
:100E1000633029F09187808733872287089531874F
:100E200020879387828708952F923F924F925F92F7
:100E30006F927F928F929F92AF92BF92CF92DF92EA
:100E4000EF92FF920F931F93CF93DF93CDB7DEB74F
:100E50006A970FB6F894DEBF0FBECDBF9A8F898F09
:100E60007A8369834A01D22E18870F833701BC2CFD
:100E7000DC0159962D913C915A972115310509F0C5
:100E800015C118968D919C911997681779070CF0E8
:100E9000D7C11A968D919C91481759070CF0D0C173
:100EA0004C2C512CB6E0CB9E600D711D11247C871B
:100EB0006B87161617060CF0C3C1EA2DF0E0FA870F
:100EC000E98793E0EE0FFF1F9A95E1F7F88BEF8724
:100ED000CF01840F951F181619060CF0B1C1A98D0A
:100EE000BA8D58968C91811104C0BFEABD1508F4E3
:100EF000D394A98DBA8DED91FC9111970284F3855D
:100F0000E02DCD010995B5E0DB9EC0011124E981FA
:100F1000FA81FC83EB83312C212C9C0128593F4F13
:100F2000388F2F8B4A2D50E05E8B4D8BEF89F88DDB
:100F3000E20DF31D44919E828D82D12CC12C6981DA
:100F40007A81620D731D7A8B698B842F90E09C8B64
:100F50008B8BE98DFA8DA081B18140FF82C0F1E0D9
:100F6000BF126FC0AF126DC01C96ED91FC912F8126
:100F70003885A4014C0D5D1D69897A89898D9A8D0A
:100F80000995EB89FC89F595E7954E2F5FEFC51A1A
:100F9000D50A6D817E818D899E89680F791F7E8338
:100FA0006D8398E0C916D10481F6AFEF2A1A3A0A88
:100FB000EB81FC81E40DF51DFC83EB83F5E02F163E
:100FC000310409F0B3CF2F81388526153705B9F0E4
:100FD000A98DBA8DED91FC91B1E0BB1257C0AB1257
:100FE00055C069817A816B5F7F4F0088F189E02D60
:100FF000830128E030E0A401898D9A8D0995A98D9F
:10100000BA8DED91FC9111970688F789E02DCD01FD
:101010006A960FB6F894DEBF0FBECDBFDF91CF91B9
:101020001F910F91FF90EF90DF90CF90BF90AF9006
:101030009F908F907F906F905F904F903F902F90F8
:1010400009941E96ED91FC91EF80F88409851A852C
:1010500092014D815E816B817C81898D9A8D09958C
:1010600090CF2F8138852615370509F48ACF31E0D6
:10107000B31207C0A31205C01C96ED91FC91930119
:1010800078CF1E96ED91FC917301E0CF6B857C8546
:10109000641975090684F785E02D73010F85188999
:1010A0009201A401898D9A8D0995A9CFF9013496F1
:1010B0009491329745915491D91AB7E0DB9E400D37
:1010C000511D1124F901259134913C8B2B8BFA0190
:1010D00025903490FA013296749031963491398B80
:1010E000329664903196449041E04C1518F04A15C0
:1010F00008F07FC0662D062C000C770B7C836B8379
:10110000842D042C000C990B9E838D83A98DBA8DA0
:10111000ED91FC9111970284F385E02DCD010995A5
:10112000512CD12CC12CEA2DF0E0FA87E9872B2D28
:1011300030E03C872B87A401440D511D47FC5A9594
:10114000588F4F8B69817A81660D711D67FC7A9586
:101150007E876D877989C71608F051CF2C2D30E036
:101160004D815E81420F531FA985BA854A9FC001F8
:101170004B9F900D5A9F900D1124FC01E80DF91D15
:10118000F88BEF87852D612C4F89588D420F531FA7
:101190005E8B4D8B671408F050C044244394480E76
:1011A000877041F4C1010196EB89FC89E20DF31DC2
:1011B000D4901C01D7FE19C0A98DBA8DED91FC9178
:1011C000662D70E0B1E0BB1219C0AB1217C02D85BF
:1011D0003E85620F731F0484F585E02D2F813885CD
:1011E0004D895E89898D9A8D0995DD0C6394842DD6
:1011F000D1CF1E821D821C821B8288CF4B815C81D5
:10120000640F751FAB85BC856A9FC0016B9F900DF5
:101210007A9F900D112469817A81680F791F068465
:10122000F785E02DEF80F88409851A859D014F85AB
:101230005889898D9A8D0995D8CF570CC3948ACF38
:101240006A960FB6F894DEBF0FBECDBFDF91CF9187
:101250001F910F91FF90EF90DF90CF90BF90AF90D4
:101260009F908F907F906F905F904F903F902F90C6
:1012700008958F929F92AF92CF92EF92FF920F9329
:101280001F93CF93DF93EC01262F898D9A8D0097C2
:1012900009F051C06A30D1F41D861C868D8948E062
:1012A000849F900111248E859F85820F931F9F87B5
:1012B0008E8781E090E0DF91CF911F910F91FF9099
:1012C000EF90CF90AF909F908F9008956D3089F3FD
:1012D000CC88AD888F898823C1F08C859D8536E0C8
:1012E000C39E800D911D11244885598548175907C3
:1012F00064F44E855F851D861C8638E0A39EC00180
:101300001124840F951F9F878E87EA88FB880889A0
:1013100019894E855F856C857D85CE010E941407F5
:101320002C898C859D8546E0249F800D911D11247C
:101330009D878C87BECF6A3069F41D861C86FC01B0
:101340003896E4912D898E859F85E29F800D911DB1
:101350001124ADCF6D3009F4ACCFFC01349634913B
:10136000631708F4A6CF3296E491E61708F4A1CFEC
:10137000FC01329685909490462F431B342F47E012
:10138000349F800C911C1124F401329634913196D3
:10139000E4913323A9F1EE2399F1CC88F401359639
:1013A000E491AD884F89442301F10E2E000CFF0B10
:1013B000E30FF11DCE9EA001CF9E500D11246C8530
:1013C0007D85460F571F68857985641775076CF40E
:1013D0004E855F851D861C86FC013896E491AE9E85
:1013E000400D511D11245F874E87EA88FB880889CC
:1013F00019894E855F856C857D85CE010E94140715
:10140000F4013496E4912C898C859D85E29F800DB2
:10141000911D11248DCF6F927F928F929F92AF92E8
:10142000BF92CF92DF92EF92FF920F931F93CF93D1
:10143000DF93EC016B015A0139014801E881F98120
:101440000284F385E02D0995E881F9810288F3890A
:10145000E02D87019301A501B601CE010995A501F3
:10146000480D591D41505109E881F9810288F389DD
:10147000E02D9301B601CE010995E881F98100883C
:10148000F189E02D9401A501B601CE010995C60CA4
:10149000D71CB60161507109E881F9810088F18992
:1014A000E02D9401A501CE010995E881F981068816
:1014B000F789E02DCE01DF91CF911F910F91FF9021
:1014C000EF90DF90CF90BF90AF909F908F907F90E4
:1014D0006F9009946F927F928F929F92AF92BF927A
:1014E000CF92DF92EF92FF920F931F93CF93DF93F0
:1014F0005C01EB016A01490138018701DC01ED91D2
:10150000FC916217730719F5641675062CF0962D79
:10151000872D3A01C92ED82E9601261937092F5F3B
:101520003F4F048CF58DE02DA301BE01C501099547
:10153000DF91CF911F910F91FF90EF90DF90CF90AF
:10154000BF90AF909F908F907F906F9008954615B9
:10155000570591F42617370724F0892D4B01C22F28
:10156000D82F9E01281939092F5F3F4F068CF78D20
:10157000E02DA601B401DACF0284F385E02D0995B0
:10158000D501ED91FC910488F589E02D830194014A
:10159000A601BE01C5010995D501ED91FC91068812
:1015A000F789E02DC501DF91CF911F910F91FF9039
:1015B000EF90DF90CF90BF90AF909F908F907F90F3
:1015C0006F900994EF92FF920F931F93DC011A968C
:1015D0000D911C911B9718962D913C911997ED91A7
:1015E000FC9100A0F1A1E02D7B0150E040E070E013
:1015F00060E009951F910F91FF90EF9008954F9231
:101600005F926F927F928F929F92AF92BF92CF9292
:10161000DF92EF92FF920F931F93CF93DF936C01B2
:101620002B015A0139014801DC01ED91FC91028442
:10163000F385E02D0995E201640C751CD601ED914E
:10164000FC91C615D7055CF40088F189E02D87016F
:101650009401A501BE01C60109952196EFCF068828
:10166000F789E02DC601DF91CF911F910F91FF9077
:10167000EF90DF90CF90BF90AF909F908F907F9032
:101680006F905F904F9009948F929F92AF92BF920C
:10169000CF92DF92EF92FF920F931F93CF93DF933E
:1016A000EC015B014A016901E881F9810284F3855B
:1016B000E02D099595012C0D3D1D21503109E88142
:1016C000F9810488F589E02D78018401A401B50130
:1016D000CE010995E881F9810688F789E02DCE01D0
:1016E000DF91CF911F910F91FF90EF90DF90CF90FE
:1016F000BF90AF909F908F9009948F929F92AF92DE
:10170000BF92CF92DF92EF92FF920F931F93CF93EE
:10171000DF93EC015B014A0169017801E881F981FD
:101720000284F385E02D0995C80CD91C860101506F
:101730001109E881F9810488F589E02D9501A4015A
:10174000B501CE010995E881F9810688F789E02D78
:10175000CE01DF91CF911F910F91FF90EF90DF901D
:10176000CF90BF90AF909F908F900994EF92FF928F
:101770000F931F93DC01ED91FC9100A0F1A1E02DEE
:1017800009951F910F91FF90EF9008950F931F936C
:10179000DC01ED91FC91068CF78DE02D09951F91F0
:1017A0000F9108950F931F93DC01ED91FC91048C30
:1017B000F58DE02D09951F910F910895DC01ED91B4
:1017C000FC910084F185E02D09942F923F924F9275
:1017D0005F926F927F928F929F92AF92BF92CF92C1
:1017E000DF92EF92FF920F931F93CF93DF9300D07E
:1017F00000D000D0CDB7DEB73C016A013E832D8317
:10180000FC82EB825801A41AB50AB7FE03C0B1945A
:10181000A194B1088D809E80861A970A97FE03C016
:101820009194819491088A149B045CF0902F812FED
:101830000D811E819D838E839C2D8D2D6B01692FC3
:10184000782F0C151D055CF09D818E817E836D8344
:10185000692F782F902F812F8601C92ED82E16013F
:10186000201A310A2B012D813E81421A530A57FE5C
:1018700003C0519441945108710137FE03C03FEFFA
:10188000E31AF30AF594E7948D819E8186179707F2
:101890005CF5A1E0B0E0BA83A983C016D1064CF193
:1018A000D301ED91FC910484F585E02D2B813C81E1
:1018B000A8016D817E818A149B041CF04D815E819C
:1018C000B801C3010995E418F508F7FE0AC02D8197
:1018D0003E8189819A81280F391F3E832D83E20C36
:1018E000F31C0F5F1F4FD9CF2FEF3FEF3A832983B0
:1018F000D4CF26960FB6F894DEBF0FBECDBFDF91D2
:10190000CF911F910F91FF90EF90DF90CF90BF90FC
:10191000AF909F908F907F906F905F904F903F908F
:101920002F900895CF92DF92EF92FF92FC01A48D49
:10193000B58D8C9190A589238C93A68DB78D8C91B4
:1019400091A589238C938BB1837088628BB985B103
:101950008C7F6370682B65B9A0A1B1A18C9192A511
:1019600089238C93A0A1B1A18C9196A1892B8C93F2
:10197000A68DB78D8C9195A1892B8C9383E290E0F5
:10198000DC011197F1F77BB1C52EDD24EE24FF2495
:1019900073706C2D6C7F762B7BB965B16C7F7C2D61
:1019A0007370672B65B9A0A1B1A16C9172A5672373
:1019B0006C93A0A1B1A16C9176A1672B6C93DC0113
:1019C0001197F1F77BB16A01EE24FF2473706C2D3F
:1019D0006C7F762B7BB965B16C7F7C2D7370672B28
:1019E00065B9A0A1B1A16C9172A567236C93A0A168
:1019F000B1A16C9176A1672B6C93DC011197F1F783
:101A00007BB1C32ED42EE52EFF2473706C2D6C7F1A
:101A1000762B7BB965B16C7F7C2D7370672B65B9B4
:101A2000A0A1B1A16C9172A567236C93A0A1B1A1F3
:101A30006C9176A1672B6C930197F1F78BB1837052
:101A4000922F9C7F892B8BB985B18C7F2370282B9B
:101A500025B9A0A1B1A18C9192A589238C93A0A1B5
:101A6000B1A18C9196A1892B8C93A48DB58D8C916D
:101A700094A1892B8C93FF90EF90DF90CF900895E5
:101A8000FC01A68DB78D8C9191A589238C938BB188
:101A90008370962F9C7F892B8BB985B18C7F637067
:101AA000682B65B9A0A1B1A18C9192A589238C93D3
:101AB000A0A1B1A18C9196A1892B8C93A68DB78DF5
:101AC0008C9195A1892B8C938BB18370932F9C7FE4
:101AD000892B8BB985B18C7F3370382B35B9A0A198
:101AE000B1A18C9192A589238C93A0A1B1A18C91D5
:101AF00096A1892B8C93A68DB78D8C9191A5892366
:101B00008C938BB18370942F9C7F892B8BB985B17B
:101B10008C7F4370482B45B9A0A1B1A18C9192A5AF
:101B200089238C93A0A1B1A18C9196A1892B8C9330
:101B3000A68DB78D8C9195A1892B8C938BB18370D9
:101B4000922F9C7F892B8BB985B18C7F2370282B9A
:101B500025B9A0A1B1A18C9192A589238C93A0A1B4
:101B6000B1A18C9196A1892B8C930895FC01A68D2F
:101B7000B78D8C9191A589238C938BB18370972F0E
:101B80009C7F892B8BB985B18C7F7370782B75B94D
:101B9000A0A1B1A18C9192A589238C93A0A1B1A100
:101BA0008C9196A1892B8C938BB18370962F9C7FFF
:101BB000892B8BB985B18C7F6370682B65B9A0A127
:101BC000B1A18C9192A589238C93A0A1B1A18C91F4
:101BD00096A1892B8C93A68DB78D8C9195A1892B7D
:101BE0008C938BB18370952F9C7F892B8BB985B19A
:101BF0008C7F5370582B55B9A0A1B1A18C9192A59F
:101C000089238C93A0A1B1A18C9196A1892B8C934F
:101C10008BB18370942F9C7F892B8BB985B18C7F7E
:101C20004370482B45B9A0A1B1A18C9192A58923FD
:101C30008C93A0A1B1A18C9196A1892B8C9308952E
:101C4000FC01A68DB78D8C9191A589238C938BB1C6
:101C50008370962F9C7F892B8BB985B18C7F6370A5
:101C6000682B65B9A0A1B1A18C9192A589238C9311
:101C7000A0A1B1A18C9196A1892B8C93A68DB78D33
:101C80008C9195A1892B8C938BB18370942F9C7F21
:101C9000892B8BB985B18C7F4370482B45B9A0A1A6
:101CA000B1A18C9192A589238C93A0A1B1A18C9113
:101CB00096A1892B8C930895AF92BF92CF92DF9219
:101CC000EF92FF920F931F93CF93DF93FC01A48DAC
:101CD000B58D8C9190A589238C93A68DB78D8C9111
:101CE00091A589238C93838D823009F0C6C08BB176
:101CF00083708C628BB985B18C7F85B9A0A1B1A1AD
:101D00008C9192A589238C93A0A1B1A18C9196A1CD
:101D1000892B8C93A68DB78D8C9195A1892B8C9353
:101D20008BB1D72FDC7F83708D2B8BB985B1C72FFB
:101D3000C3708C7F8C2B85B9A0A1B1A18C9192A589
:101D400089238C93A0A1B1A18C9196A1892B8C930E
:101D50008BB1962F9C7FB92E8370892B8BB985B15F
:101D6000A62FA370AA2E8C7F8A2B85B900A111A162
:101D7000D8018C9192A589238C9300A111A1D8013F
:101D80008C9196A1892B8C932150310941095109DD
:101D900069017A0186E0F694E794D794C7948A950E
:101DA000D1F77613A6C0B1E0CB1AD10808F484C0ED
:101DB00060E1A0A1B1A17C91C2A57C237C93A0A1EC
:101DC000B1A17C91C6A17C2B7C93A0A1B1A17C91F7
:101DD000C2A57C237C93A0A1B1A17C91C6A17C2B40
:101DE0007C93A0A1B1A17C91C2A57C237C93A0A1EE
:101DF000B1A17C91C6A17C2B7C93A0A1B1A17C91C7
:101E0000C2A57C237C93A0A1B1A17C91C6A17C2B0F
:101E10007C93A0A1B1A17C91C2A57C237C93A0A1BD
:101E2000B1A17C91C6A17C2B7C93A0A1B1A17C9196
:101E3000C2A57C237C93A0A1B1A17C91C6A17C2BDF
:101E40007C93A0A1B1A17C91C2A57C237C93A0A18D
:101E5000B1A17C91C6A17C2B7C93A0A1B1A17C9166
:101E6000C2A57C237C93A0A1B1A17C91C6A17C2BAF
:101E70007C93615009F09DCF96CF81111AC08BB130
:101E800083708BB985B18C7F85B9A0A1B1A18C91EC
:101E900092A589238C93A0A1B1A18C9196A1892BA5
:101EA0008C938BB1837080628BB985B18C7F82609B
:101EB00024CF8330B1F71BCF2F73215008F403C117
:101EC000A0A1B1A18C9192A589238C93A0A1B1A1CD
:101ED0008C9196A1892B8C93A0A1B1A18C9192A5F4
:101EE00089238C93A0A1B1A18C9196A1892B8C936D
:101EF000E4CF91E0C91AD10808F4B5C070E16BB124
:101F000063706D2B6BB965B16C7F6C2B65B900A1EB
:101F100011A1D8016C91F2A46F216C9300A111A1C1
:101F2000D8016C91F6A06F296C936BB163706B292B
:101F30006BB965B16C7F6A2965B900A111A1D8019F
:101F40006C91F2A46F216C9300A111A1D8016C9146
:101F5000F6A06F296C936BB163706D2B6BB965B193
:101F60006C7F6C2B65B900A111A1D8016C91F2A412
:101F70006F216C9300A111A1D8016C91F6A06F297B
:101F80006C936BB163706B296BB965B16C7F6A2917
:101F900065B900A111A1D8016C91F2A46F216C93D5
:101FA00000A111A1D8016C91F6A06F296C936BB1BF
:101FB00063706D2B6BB965B16C7F6C2B65B900A13B
:101FC00011A1D8016C91F2A46F216C9300A111A111
:101FD000D8016C91F6A06F296C936BB163706B297B
:101FE0006BB965B16C7F6A2965B900A111A1D801EF
:101FF0006C91F2A46F216C9300A111A1D8016C9196
:10200000F6A06F296C936BB163706D2B6BB965B1E2
:102010006C7F6C2B65B900A111A1D8016C91F2A461
:102020006F216C9300A111A1D8016C91F6A06F29CA
:102030006C936BB163706B296BB965B16C7F6A2966
:1020400065B900A111A1D8016C91F2A46F216C9324
:1020500000A111A1D8016C91F6A06F296C93715069
:1020600009F04DCF46CF2F73215068F18BB18370AB
:102070008D2B8BB985B18C7F8C2B85B940A151A15B
:10208000DA018C9192A589238C9340A151A1DA01A8
:102090008C9196A1892B8C938BB183708B298BB9F2
:1020A00085B18C7F8A2985B940A151A1DA018C9133
:1020B00092A589238C9340A151A1DA018C9196A11C
:1020C000892B8C93D1CFA48DB58D8C9194A1892B24
:1020D0008C93DF91CF911F910F91FF90EF90DF9044
:1020E000CF90BF90AF900895CF93DF93EC01EC8D2C
:1020F000FD8D808198A5892380832885398521508D
:10210000310945E064E0CE010E94400D2A853B85FF
:102110002150310949E068E0CE010E94400DEC8D6C
:10212000FD8D80819CA1892B8083DF91CF910895C3
:102130008F929F92AF92BF92CF92DF92EF92FF92D7
:102140000F931F93CF93DF93EC017A016901EC8D1C
:10215000FD8D808198A5892380838B8D811171C02D
:102160008E89823009F44BC0833009F45CC05A0177
:102170004B01813069F48FEE90E09C01201B310B04
:102180004C01841A950A5B01860164017B01B90147
:10219000AB0160E570E0CE010E94B60DA60161E5DD
:1021A00070E0CE010E94B60DA70162E570E0CE019D
:1021B0000E94B60DA80163E570E0CE010E94B60D45
:1021C000A40160E270E0CE010E94B60DA50161E2BB
:1021D00070E0CE010E94B60DEC8DFD8D80819CA13A
:1021E000892B8083DF91CF911F910F91FF90EF900A
:1021F000DF90CF90BF90AF909F908F9008958FEE1B
:1022000090E09C012C193D096C01C61AD70A8FE396
:1022100091E0AC01401B510B8C010E191F095801B4
:1022200046017A01B4CF8FE391E09C012C193D095E
:102230005C01A61AB70A4A0168018501B701790154
:10224000A7CF8130C9F49B0143E062E0CE010E9438
:10225000400D970147E066E0CE010E94400D9601D7
:1022600045E064E0CE010E94400D980149E068E03D
:10227000CE010E94400DB0CF8250823008F0ACCF2A
:10228000CB01770FAA0BBB0BDC019927882796019E
:10229000DD0C440B550B282B392B4A2B5B2B6AE2A8
:1022A000CE010E94920CC701FF0CAA0BBB0BDC01F4
:1022B00099278827012E000C220B330BA9019801C6
:1022C000282B392B4A2B5B2B6BE2CE010E94920C00
:1022D00083CF0F931F93CF93DF93EC010E94FF06F0
:1022E000EC8DFD8D808198A5892380838B8D811154
:1022F00021C0EE89E15040E350E1E33038F4F0E0F2
:10230000EE0FFF1FEB5EFE4F4081518163E070E0F6
:10231000CE010E94B60D0A851B8501501109288542
:1023200039852150310950E040E070E060E0CE0195
:102330000E9498108B8D813081F4EE89E15040E04D
:10234000E33020F4F0E0E65FFE4F408166E1CE012D
:102350000E94200ECE010E9474108B8D8230D9F421
:10236000EE8940E0E43020F4F0E0EF5EFE4F408183
:1023700066E3CE010E94200E0A851B8501501109DB
:10238000288539852150310950E040E070E060E057
:10239000CE010E9498108B8D8330D9F4EE8940E0F5
:1023A000E43020F4F0E0E35FFE4F408166E3CE01CD
:1023B0000E94200E0A851B85015011092885398548
:1023C0002150310950E040E070E060E0CE010E9411
:1023D0009810DF91CF911F910F910895AF92BF9206
:1023E000CF92DF92EF92FF920F931F93CF93DF93E1
:1023F000EC017B016A01B22EA32E77FD3BC057FD95
:1024000039C08885998568177907A4F58A859B85E1
:10241000481759077CF5EC8DFD8D808198A589239F
:1024200080838B8D811145C08E89823071F183301C
:10243000C9F1813031F48FEE90E0841B950B6B0174
:102440007C01A70160E270E0CE010E94B60DA601FA
:1024500061E270E0CE010E94B60D4B2D5A2D62E272
:1024600070E0CE010E94B60DEC8DFD8D80819CA1A7
:10247000892B8083DF91CF911F910F91FF90EF9077
:10248000DF90CF90BF90AF9008958FEE90E09C01C9
:10249000261B370B79018FE391E09C01241B350B40
:1024A0006901CFCF8FE391E0861B970B7A016C0116
:1024B000C8CF813009F06CC0EE89E15040E0E330D4
:1024C00020F4F0E0E65FFE4F408166E1CE010E941D
:1024D000200E970143E062E0CE010E94400D96017C
:1024E00047E066E0CE010E94400DEE8DFF8D8081B9
:1024F00099A5892380838BB1837080628BB985B164
:102500008C7F826085B9E8A1F9A180819AA5892391
:102510008083E8A1F9A180819EA1892B8083EE8D23
:10252000FF8D80819DA1892B80838BB183709A2D33
:102530009C7F892B8BB985B18C7F3A2D3370A32E6C
:10254000A82AA5B8E8A1F9A180819AA5892380834A
:10255000E8A1F9A180819EA1892B80838BB1837032
:102560009B2D9C7F892B8BB985B18C7F9B2D937084
:10257000B92EB82AB5B8E8A1F9A180819AA5892316
:102580008083E8A1F9A180819EA1892B80836CCFF3
:102590008250823008F068CF0A851B8501501109EE
:1025A0002885398521503109CE010E949810EC8D83
:1025B000FD8D808198A589238083EE8DFF8D80819C
:1025C00099A5892380838BB183708C628BB985B187
:1025D0008C7F85B9E8A1F9A180819AA589238083A0
:1025E000E8A1F9A180819EA1892B8083EE8DFF8DCA
:1025F00080819DA1892B80838BB183709A2D9C7FD4
:10260000892B8BB995B19C7F2A2D2370A22EA92AE4
:10261000A5B8E8A1F9A180819AA589238083E8A1C2
:10262000F9A180819EA1892B80838BB183709B2D22
:102630009C7F892B8BB995B19C7F3B2D3370B32E3A
:10264000B92A98CFEF92FF920F931F93CF93DF9306
:10265000EC017B018B8D811135C08E8981508330D7
:1026600060F590E0FC01E95FFE4F408150E0880F8B
:10267000991FFC01EF5FFE4F00811181EC8DFD8DF4
:10268000808198A58923808360E270E0CE010E945A
:10269000B60DA80161E270E0CE010E94B60D20E007
:1026A0003CE241E050E0B701CE01DF91CF911F91B4
:1026B0000F91FF90EF900C945C0E10E000E050E062
:1026C00040E0DCCF8150833050F70A851B850150F4
:1026D0001109288539852150310950E040E070E02A
:1026E00060E0CE010E949810DACF8F929F92AF9255
:1026F000BF92CF92DF92EF92FF920F931F93CF93EF
:10270000DF93EC01F901D80147011E161F06ECF416
:102710001A161B06D4F4A884B9846A157B05ACF498
:102720008A859B854817590784F47901E60EF71EC0
:1027300097012150310937FD08C06801C40ED51E2C
:1027400086010150110917FF56C0DF91CF911F91EB
:102750000F91FF90EF90DF90CF90BF90AF909F9040
:102760008F90089570E060E057FD33C06D012A1529
:102770003B0534F09501215031097501E61AF70A3D
:102780000817190734F08C01015011096C01C41AA3
:10279000D50ACE010E9498109701D6010E94BC2252
:1027A0009B01AC01B401CE010E945C0E8B8D8111A6
:1027B00013C00A851B8501501109288539852150D0
:1027C000310950E040E070E060E0CE010E949810D6
:1027D000BCCF50E040E0CBCFCE01DF91CF911F9135
:1027E0000F91FF90EF90DF90CF90BF90AF909F90B0
:1027F0008F900C94741077FDB5CF7F01B5CFCF9239
:10280000DF92EF92FF920F931F93CF93DF93EC0130
:1028100069017801121613060CF03FC077FD3DC028
:102820008885998568177907C4F58A859B85481737
:1028300059079CF5240F351F89010150110917FD17
:102840002CC057FF03C0690150E040E0081719078A
:1028500034F08C01015011096C01C41AD50A9B0196
:10286000CE010E9498109601DD0C440B550BB70168
:10287000CE010E945C0E8B8D811118C00A851B85CC
:1028800001501109288539852150310950E040E077
:1028900070E060E0CE010E949810DF91CF911F910F
:1028A0000F91FF90EF90DF90CF900895CE01DF91D0
:1028B000CF911F910F91FF90EF90DF90CF900C94EC
:1028C0007410CF92DF92EF92FF920F931F93CF93EA
:1028D000DF93EC0169017801121613060CF040C079
:1028E00057FD3EC08A859B8548175907CCF58885DA
:1028F000998568177907A4F5F901E60FF71F9F017D
:102900002150310937FD2CC077FF03C06F0170E003
:1029100060E02817390734F09C01215031096C011F
:10292000C61AD70A8A01CE010E9498109601DD0CC2
:10293000440B550BB701CE010E945C0E8B8D8111AB
:1029400018C00A851B850150110928853985215039
:10295000310950E040E070E060E0CE010E94981044
:10296000DF91CF911F910F91FF90EF90DF90CF906B
:102970000895CE01DF91CF911F910F91FF90EF90BD
:10298000DF90CF900C947410089590E080E008954B
:102990000E94D122FB0101900020E9F73197AF019D
:1029A000461B570BDC01ED91FC910280F381E02D79
:1029B00009948F929F92AF92BF92CF92DF92EF9243
:1029C000FF920F931F93CF93DF93CDB7DEB7A197FD
:1029D0000FB6F894DEBF0FBECDBF6C01990FEE08A5
:1029E000FF08F7FE4BC06DE280E692E00E944106D0
:1029F0008C0122273327A9012C193D094E095F09B3
:102A000019A2CE0181967C019AE0892E912CA12CED
:102A1000B12CCA01B901A50194010E947B20605D1F
:102A2000F70162937F01211531054105510589F7B1
:102A300090E080E0309729F0BF0180E692E00E94AC
:102A4000CA14080F191F69E571E080E692E00E9440
:102A5000CA14800F911FA1960FB6F894DEBF0FBE67
:102A6000CDBFDF91CF911F910F91FF90EF90DF903D
:102A7000CF90BF90AF909F908F900895A70196013F
:102A800019A28E010F5D1F4F8AE0C82ED12CE12CB8
:102A9000F12CCA01B901A70196010E947B20605D5B
:102AA000F80162938F01211531054105510589F720
:102AB000309739F0BF0180E692E00E94CA148C0181
:102AC000C2CF10E000E0BFCF1F93CF93DF9385ED1F
:102AD0008093BC008091E9019091EA01A091EB0103
:102AE000B091EC010796A11DB11D23E0B695A79505
:102AF000979587952A95D1F72091BC0024FD03C0B6
:102B00001092310252C04091E9015091EA01609166
:102B1000EB017091EC01452B462B472B69F3009795
:102B2000A105B10541F02AE22A95F1F700C001970D
:102B3000A109B109E1CF8091E801C1E0C093E701AB
:102B4000882399F1D091B8001091BA008091BC000F
:102B50008A7B8093BC0060E082E10E94400460E0D8
:102B600083E10E94400410923102C093330210921C
:102B7000320261E082E10E94400461E083E10E9450
:102B800040048091B9008E7F8093B9008091B90094
:102B90008D7F8093B90088E48093B80085E48093AA
:102BA000BC001093BA00D093B800DF91CF911F9171
:102BB00008951F920F920FB60F9211242F933F93F7
:102BC0008F939F93AF93BF93809158029091590236
:102BD000A0915A02B0915B023091570223E0230F7B
:102BE0002D3758F50196A11DB11D209357028093F2
:102BF000580290935902A0935A02B0935B028091BD
:102C00005C0290915D02A0915E02B0915F0201961C
:102C1000A11DB11D80935C0290935D02A0935E02A2
:102C2000B0935F02BF91AF919F918F913F912F9190
:102C30000F900FBE0F901F90189526E8230F029655
:102C4000A11DB11DD2CF1F920F920FB60F9211246A
:102C50002F933F934F935F936F937F938F939F93A4
:102C6000AF93BF93EF93FF9380E692E00E941F061D
:102C7000FF91EF91BF91AF919F918F917F916F9154
:102C80005F914F913F912F910F900FBE0F901F902A
:102C900018951F920F920FB60F9211242F938F93B6
:102CA0009F93EF93FF93E0917002F0917102808106
:102CB000E0917602F091770282FD1BC090818091B5
:102CC00079028F5F8F7320917A02821741F0E09131
:102CD0007902F0E0E05AFD4F958F80937902FF91E1
:102CE000EF919F918F912F910F900FBE0F901F909A
:102CF00018958081F4CF1F920F920FB60F92112476
:102D00002F933F934F935F936F937F938F939F93F3
:102D1000AF93BF93EF93FF938091B900887F803684
:102D200009F44AC0F0F5883209F4A5C018F58031DD
:102D300009F499C0B8F4882309F4F5C0883009F47F
:102D400092C0FF91EF91BF91AF919F918F917F9131
:102D50006F915F914F913F912F910F900FBE0F9008
:102D60001F901895883109F486C0803251F78093FE
:102D7000300214C0803409F49BC040F48033B9F3AE
:102D80008833F9F68093300285ECAEC0803509F4C3
:102D900083C0883509F494C0883499F60E9464157C
:102DA000D0CF883909F48AC038F5883729F050F433
:102DB000883611F0803729F683E080933102109233
:102DC0002F0255C0883809F479C0803919F080384D
:102DD00009F0B7CF80912F02803208F06FC0E091E8
:102DE0002F0281E08E0F80932F028091BB00F0E0D4
:102DF000E15FFD4F80833BC0803B39F0D0F4803AE7
:102E000009F477C0883A09F09CCF84E080933102BE
:102E100010920E0210920D02F0E0E0E00995809110
:102E20000D0281110FC081E080930D021092ED011F
:102E300009C0803C09F4A8CF883C09F4A5CF883BA1
:102E400009F07FCFE0910E0281E08E0F80930E0299
:102E5000F0E0E351FE4F80818093BB0090910E0221
:102E600080910D0229C0809156028093BB0085ECB1
:102E70008093BC0066CF90915502809154029817C0
:102E800058F5E091550281E08E0F80935502F0E0F5
:102E9000EC5CFD4F8081E9CFE091550281E08E0F1F
:102EA000809355028091BB00F0E0EC5CFD4F808385
:102EB00090915502809154029817C8F285E8D8CFB6
:102EC000E091550281E08E0F809355028091BB0006
:102ED000F0E0EC5CFD4F80838091330281115ECF86
:102EE00081E08093320284EA8093BC001092310228
:102EF00028CF85EC8093BC001092310280912F0284
:102F0000803230F4E0912F02F0E0E15FFD4F10825B
:102F100060912F0270E08FE092E0F0E0E0E0099530
:102F200010922F020ECF1092300238CF4F925F9244
:102F30006F927F928F929F92AF92BF92CF92DF92C9
:102F4000EF92FF920F931F93CF93DF93E0E6F2E0AF
:102F50001382128288EE93E0A0E0B0E08483958330
:102F6000A683B7838FE191E09183808385EC90E025
:102F70009587848784EC90E09787868780EC90E043
:102F8000918B808B81EC90E0938B828B82EC90E034
:102F9000958B848B86EC90E0978B868B118E128EAE
:102FA000138E148EC1E1D3E01B821A8280EFA82E0B
:102FB000B12CBD82AC8290E4C92EDD24D394DF8293
:102FC000CE82B986A886DB86CA861E8A1D861C86A6
:102FD0001F861E8681E08D8B8C8B88248A94982C8A
:102FE0009B8A8A8A998A888A8F8B188E1A8E198E64
:102FF00081E391E09983888382E18CA7EDE1F7E09A
:10300000E491F0E0EE0FFF1FEE5FF84FA591B49151
:10301000BD8FAC8F0CE117E0F8018491E82FF0E050
:10302000EE0FFF1FEE5FF84F859194919F8F8E8F6B
:103030005BE1E52E57E0F52EF7018491E82FF0E0F3
:10304000EE0FFF1FEE5FF84F8591949199A388A32F
:10305000EAE1F7E0E491F0E0EE0FFF1FEE5FF84FDA
:10306000859194919BA38AA3EFEFF6E084918CA3C2
:10307000EEEF4E2EE6E05E2EF20124912DA3FDEF41
:103080006F2EF6E07F2EF30194919EA3ECEFF6E015
:10309000E491EFA3382F309538A7209529A7909574
:1030A0009AA7E095EBA7EC918E2B8C93EE8DFF8D7C
:1030B00080819DA1892B8083E8A1F9A180819EA1B7
:1030C000892B8083EAA1FBA180819FA1892B80832A
:1030D00061E081E10E948C0461E080E10E948C0447
:1030E00061E08FE00E948C0461E08EE00E948C041D
:1030F00061E082E10E94400461E082E10E948C0470
:103100000E94BB031E8A1D861C861F861E86998A06
:10311000888AB986A886DB86CA86ADEFB2E08FE0E2
:1031200012968C93129780E114968C93149787E0F3
:1031300013968C93139786E015968C9315978EE4CF
:1031400091E017969C938E931697E2E1F7E0E49155
:10315000F0E0EE0FFF1FEE5FF84F85919491199606
:103160009C938E931897F701E490EE2DF0E0EE0F0C
:10317000FF1FEE5FF84F859194911B969C938E9361
:103180001A97F8010491E02FF0E0EE0FFF1FEE5FB9
:10319000F84F859194911D969C938E931C97E3E133
:1031A000F7E0E491F0E0EE0FFF1FEE5FF84F85913E
:1031B00094911F969C938E931E97E4EFF6E0E49112
:1031C0005096EC935097F301649052966C925297FC
:1031D000F201449051964C925197E5EFF6E0E4915C
:1031E0005396EC9353978AE090E08D939C93DF91F4
:1031F000CF911F910F91FF90EF90DF90CF90BF90F4
:10320000AF909F908F907F906F905F904F900895B8
:10321000CF93DF9300D000D0CDB7DEB7789484B5DC
:10322000826084BD84B5816084BD85B5826085BDC2
:1032300085B5816085BD80916E00816080936E0050
:103240001092810080918100826080938100809142
:1032500081008160809381008091800081608093F3
:1032600080008091B10084608093B1008091B000B3
:1032700081608093B00080917A00846080937A00AE
:1032800080917A00826080937A0080917A008160D8
:1032900080937A0080917A00806880937A001092FF
:1032A000C100E0917002F091710282E08083E091B0
:1032B0006C02F0916D021082E0916E02F0916F024B
:1032C00080E1808310927802E0917402F09175029F
:1032D00086E08083E0917202F091730280818061C8
:1032E0008083E0917202F091730280818860808314
:1032F000E0917202F0917302808180688083E09196
:103300007202F091730280818F7D80830E942A0572
:1033100005E010E0A3ECEA2EF12C83ED0E94DA0325
:103320007A836983C7010197F1F76134734909F41E
:103330006CC00150110989F784E00E94DA0361151D
:1033400070488105910509F4B0C4E0912D03F09116
:103350002E0380819091390389238083E0912F038C
:10336000F0913003808190913A03892380838BB15F
:1033700083708BB985B18C7F85B9E0913103F09171
:103380003203808190913B0389238083E091310354
:10339000F0913203808190913703892B8083E091F3
:1033A0003103F0913203808190913B038923808324
:1033B000E0913103F0913203808190913703892BA2
:1033C00080838AB183708AB984B18C7F84B9E0919B
:1033D0002F03F0913003808190913603892B8083F5
:1033E0000E94C20389830E94C2038B830E94BB0395
:1033F000E0912D03F0912E03808190913503892B6C
:10340000808399818B819A8389830E942A0568EC45
:1034100070E080E090E00E94F704E981FA81E532F3
:1034200023E9F20721F0E832F34909F0E7C41092EA
:103430002C03E0912D03F0912E03808190913903AC
:1034400089238083E4E0F6E0FA83E983E981FA8165
:1034500065917491E981FA813296459154916F3F5B
:10346000710509F0C6C4BA0190E080E00E94F7043B
:1034700089819A8104969A838983805D964031F789
:103480006091270381E193E00E9469110FE311E04D
:103490002FEE30E050E040E070E060E081E193E04A
:1034A0000E94981061E081E193E00E94691170E050
:1034B00060E081E193E00E942213F0EEEF2EFF2402
:1034C000FA9400EF10E02FE331E050E040E070E0CC
:1034D00060E081E193E00E940B0A88E39FEF9A830A
:1034E0008983E4E6F0E0FC83EB8301E010E08B816C
:1034F0009C81081B190BE980FA8020EE37E0AC01B3
:1035000048585F4F60EA70E081E193E00E94DE0B73
:1035100020EE37E048E750E0EB81FC814E1B5F0B6B
:1035200060EA70E081E193E00E94DE0B20EE37E07C
:1035300048E750E06B817C8160567F4F81E193E0EA
:103540000E94DE0B60EA70E08B819C81681B790B26
:1035500020EE37E048E750E081E193E00E94DE0B87
:10356000CB80DC8022242394312CB12CA12C17FD9C
:1035700008C091E0C91AD108E2E0EE0EF11C0E0D70
:103580001F1DFFEFAF1ABF0A22E0220E311C020DF1
:10359000131D250180EA480E511C20EE37E046013C
:1035A00098E7890E911CA401B20181E193E00E9489
:1035B000DE0B20EA622E712C6A187B0820EE37E0C1
:1035C000A401B30181E193E00E94DE0B20EE37E01D
:1035D00048E7842E912C8C189D08A401B20181E14A
:1035E00093E00E94DE0B20EE37E0A401B30181E1FD
:1035F00093E00E94DE0B4501E8E78E0E911C20EE61
:1036000037E0A4013601F0EA6F0E711CB30181E1CD
:1036100093E00E94DE0B20EE37E0A40160EA862EE4
:10362000912C8C189D08B40181E193E00E94DE0B7F
:1036300078E7472E512C4A185B0820EE37E0A201AC
:10364000B30181E193E00E94DE0B20EE37E0A2019E
:10365000B40181E193E00E94DE0BAC14BD040CF4D4
:1036600086CF6EE170E080E090E00E94F7048B81ED
:103670009C8105979C838B83E981FA813A96FA8332
:10368000E983059709F031CF82E791E09A83898336
:1036900084E3882E83E0982E92E6492E92E0592EFC
:1036A0006401E981FA81CE1ADF0A5201AE1ABF0A1B
:1036B0003F01F2ED6F1A71080FE1E02EF12C860147
:1036C000930149815A8168EC70E081E193E00E94A6
:1036D0006A0A9501A601B30181E193E00E946A0A9A
:1036E00009811A8128EC30E0A601B50181E193E05F
:1036F0000E946A0A89819A8105969A8389838A3908
:10370000914071F660ED77E080E090E00E94F70470
:103710006FEF7FEF81E193E00E9422138EE190E052
:1037200090931E0380931D0388E290E09093200302
:1037300080931F03109224031092230310922203FC
:1037400010922103F2E0F0932503F09326036CE539
:1037500071E081E193E00E94CA1483E790E09093C6
:103760001E0380931D0380E590E0909320038093D7
:103770001F0310922403109223031092220310922D
:10378000210322E020932503209326036DE671E0B8
:1037900081E193E00E94CA1487E390E090931E03B6
:1037A00080931D038BE990E09093200380931F0387
:1037B000FFE1CF2ED12CD0922403C0922303D092CC
:1037C0002203C092210382E0809325038093260385
:1037D00065E871E081E193E00E94CA14A0EEEA2E50
:1037E000FF24FA9408E210E022ED30E044EB50E0D0
:1037F00062E370E081E193E00E947513E12CB8EF81
:10380000FB2E22ED30E044EB50E062E370E081E11A
:1038100093E00E940B0A8CE390E090931E03809348
:103820001D038EEB90E09093200380931F03D092B2
:103830002403C0922303D0922203C092210392E07A
:10384000909325039093260364E971E081E193E06E
:103850000E94CA1422242A9413E0312EE2E0DE2EC4
:1038600060E08091FF020E948C0460E08091000380
:103870000E948C0461E0809102030E948C0461E04C
:10388000809101030E948C0480910D03E091050357
:10389000F09106039081892B808380910E03E09143
:1038A0000903F0910A039081809589238083809198
:1038B000FF020E94BD048C018091FF020E94BD04A2
:1038C0009801281B390B2C5F3F4FC12C2930310543
:1038D00030F4800F911F95958795CC24C3944101B6
:1038E000881A990A60E0809102030E948C0460E0CB
:1038F000809101030E948C0461E08091FF020E948C
:103900008C0461E0809100030E948C04809110037C
:10391000E0910B03F0910C039081809589238083C3
:1039200090910F03E0910703F09108038081892BA8
:103930008083809101030E94BD047C01809101037A
:103940000E94BD048C01C701801B910B049609974E
:1039500008F09EC30E0D1F1D1595079561E080911F
:1039600002030E948C0460E08091FF020E948C049C
:1039700080910D03E0910503F091060390818095FD
:103980008923808390911003E0910B03F0910C0345
:103990008081892B8083809101030E94BD047C017A
:1039A0008091FF020E94BD04BC01A0900303B0906F
:1039B0000403A114B10409F46DC3072E000C880B95
:1039C000990B0E94C3212B013C01B701FF0C880B0E
:1039D000990B0E94C3219B01AC01C301B2010E945B
:1039E000192120E030E040E85FE30E94AC202B0189
:1039F0003C01B401092C000C880B990B0E94C321D7
:103A0000A30192010E944F222B013C01B50190E0DD
:103A100080E00E94C121A30192010E944F2220E078
:103A200030E040E85AE30E944F220E948B21C110EF
:103A300002C070E060E08091FD029091FE02861766
:103A400097070CF025C1092C000CAA08BB08A5019A
:103A50009401245F314041095109A0E4B1E00E9482
:103A6000702026E83EEF4FEF5FEF0E9451202901C2
:103A7000C9018D549F4F8D3A914008F009C19101C1
:103A8000201B310B032E000C440B550B285A3240DF
:103A900041095109A0EEB1E00E94702027EC3DEFF2
:103AA0004FEF5FEF0E9451204901C9018D529140B3
:103AB0008138910508F0ECC080910001882309F459
:103AC000E7C065EA71E080E692E00E94CA1469E509
:103AD00071E080E692E00E94CA14C2010E94D914EB
:103AE000C4010E94D9146EE170E080E090E00E9471
:103AF000F7041092000161E080E10E948C0461E013
:103B00008FE00E948C046FEF7FEF81E193E00E94D1
:103B1000221380EEE82EFF24FA9400EF10E02FE34A
:103B200031E050E040E070E060E081E193E00E942D
:103B30000B0A08E210E020EF30E042E350E06EE1D3
:103B400070E081E193E00E947513E12C98EFF92E6B
:103B500020EF30E042E350E06EE170E081E193E07D
:103B60000E940B0A87E390E090931E0380931D034D
:103B7000ECE3F0E0F0932003E0931F038FE190E08B
:103B80009093240380932303909322038093210333
:103B9000D0922503D092260368EB71E081E193E097
:103BA0000E94CA1420EEE22EFF24FA9420EF30E0A7
:103BB00044E650E06EE170E081E193E00E9475130D
:103BC000E12C38EFF32E20EF30E044E650E06EE1D8
:103BD00070E081E193E00E940B0AE5E5F0E0F093EC
:103BE0001E03E0931D038EE690E0909320038093E4
:103BF0001F03EFE1F0E0F0932403E0932303F0933D
:103C00002203E0932103D0922503D092260369EC8E
:103C100071E081E193E00E94CA1440EEE42EFF249B
:103C2000FA9428E131E046E950E06EE170E081E18C
:103C300093E00E947513E12C58EFF52E28E131E056
:103C400046E950E06EE170E081E193E00E940B0AEA
:103C500087E390E090931E0380931D03E0EAF0E079
:103C6000F0932003E0931F038FE190E090932403EF
:103C7000809323039093220380932103D092250302
:103C8000D092260362ED71E081E193E00E94CA14B4
:103C9000E0E0F0E0EF2B09F4E3CD0E940B0688236F
:103CA00009F4DCCD0E940000D9CDE0912D03F09104
:103CB0002E0380819091390389238083E0912F0323
:103CC000F0913003808190913A03892380838BB1F6
:103CD0008370886B8BB985B18C7F816085B9E091E9
:103CE0003103F0913203808190913B0389238083DB
:103CF000E0913103F0913203808190913703892B59
:103D00008083E0912F03F0913003808190913603FE
:103D1000892B808383E290E0FC013197F1F72BB18E
:103D20002C6F2BB925B1236025B9E0913103F091B7
:103D30003203208130913B0323232083E091310320
:103D4000F0913203208130913703232B2083FC0133
:103D50003197F1F72BB1237020682BB925B123607F
:103D600025B9E0913103F0913203208130913B037A
:103D700023232083E0913103F0913203208130919D
:103D80003703232B20830197F1F78BB18370846570
:103D90008BB985B1836085B9E0913103F09132032D
:103DA000808190913B0389238083E0913103F091DE
:103DB0003203808190913703892B8083E0912D031A
:103DC000F0912E03808190913503892B80836CE2E2
:103DD00071E080E090E00E94F70480ED0E94DA0339
:103DE000611571058949910509F0AFCA87E593E826
:103DF0000ACB81E193E00E94B60D3ACB89819A818A
:103E00008134934909F06BC082E080932C03E091E8
:103E10002D03F0912E0380819091390389238083B3
:103E200040E061E081E193E00E94200E62E370E0F7
:103E300080E090E00E94F70440E068E281E193E0D6
:103E40000E94200E43E260EC81E193E00E94200E8C
:103E500040E161EC81E193E00E94200E4BE25BE2E5
:103E600065EC70E081E193E00E94B60D40EC67ECF8
:103E700081E193E00E94200E48E866E381E193E04F
:103E80000E94200E45E56AE381E193E00E94200E46
:103E90004BE150E061EB70E081E193E00E94B60DF0
:103EA00047E067EB81E193E00E94200E40E061E192
:103EB00081E193E00E94200E66E970E080E090E0EE
:103EC0000E94F70440E069E281E193E00E94200E45
:103ED00064EF71E080E090E00E94F704D7CA898126
:103EE0009A818735934809F095C083E080932C032D
:103EF000E0912D03F0912E03808190913903892365
:103F0000808380E0E82FF0E0E254FA4F9491F2E0F1
:103F1000F80FF983E1E0E80FF0E0E254FA4F649122
:103F20009F3F49F470E090E080E00E94F7048981AF
:103F3000863440F3B7CAE0912D03F0912E0320811F
:103F40003091390323232083E0912F03F091300334
:103F5000208130913A03232320832BB12370392F02
:103F60003C7F232B2BB925B12C7FE92FE370E22B6B
:103F7000E5B9E0913103F0913203908120913B0348
:103F800092239083E0913103F0913203908120914C
:103F90003703922B9083E0912F03F09130039081AF
:103FA00020913603922B9083860F8E5FE981E8176C
:103FB00029F121E02E0FF0E0E254FA4FE4919BB199
:103FC00093703E2F3C7F932B9BB995B19C7FE37000
:103FD000E92BE5B9E0913103F09132039081309102
:103FE0003B0393239083E0913103F091320390815E
:103FF00030913703932B9083E22FD9CF8981860F9D
:10400000E0912D03F0912E03908120913503922BA6
:1040100090838ECF89819A8185379547A9F581E074
:1040200080932C03E0912D03F0912E0380819091D9
:1040300039038923808388E695E09A838983E9811F
:10404000FA816491319644916F3FC9F4642F70E016
:1040500090E080E00E94F704E981FA813296FA83C9
:10406000E983EE5BF54059F76091270381E193E026
:104070000E94691181E193E00E94741013CA81E1EA
:1040800093E00E94200EE8CF8FEF80932C030ACAA2
:10409000C12C64CC6E197F09F101E61BF70BBF013F
:1040A000C6CC052E97FB1EF400940E94682057FD95
:1040B00007D00E947B2007FC03D04EF40C946820AC
:1040C00050954095309521953F4F4F4F5F4F089544
:1040D00090958095709561957F4F8F4F9F4F089574
:1040E0000E949D20A59F900DB49F900DA49F800DD0
:1040F000911D11240895A1E21A2EAA1BBB1BFD01DC
:104100000DC0AA1FBB1FEE1FFF1FA217B307E407B6
:10411000F50720F0A21BB30BE40BF50B661F771F0E
:10412000881F991F1A9469F76095709580959095EE
:104130009B01AC01BD01CF010895A29FB001B39FC7
:10414000C001A39F700D811D1124911DB29F700DA0
:10415000811D1124911D08955058BB27AA270E9444
:10416000C4200C9415220E94072238F00E940E22CF
:1041700020F039F49F3F19F426F40C9404220EF435
:10418000E095E7FB0C94FE21E92F0E94262258F3CC
:10419000BA17620773078407950720F079F4A6F52C
:1041A0000C9448220EF4E0950B2EBA2FA02D0B0193
:1041B000B90190010C01CA01A0011124FF27591B6C
:1041C00099F0593F50F4503E68F11A16F040A22F72
:1041D000232F342F4427585FF3CF469537952795E3
:1041E000A795F0405395C9F77EF41F16BA0B620BE2
:1041F000730B840BBAF09150A1F0FF0FBB1F661F29
:10420000771F881FC2F70EC0BA0F621F731F841F6B
:1042100048F4879577956795B795F7959E3F08F091
:10422000B0CF9395880F08F09927EE0F9795879553
:1042300008950E942D210C9415220E940E2258F000
:104240000E94072240F029F45F3F29F00C94FE21E0
:1042500051110C9449220C9404220E94262268F3E6
:104260009923B1F3552391F3951B550BBB27AA272F
:1042700062177307840738F09F5F5F4F220F331F69
:10428000441FAA1FA9F335D00E2E3AF0E0E832D031
:1042900091505040E695001CCAF72BD0FE2F29D034
:1042A000660F771F881FBB1F261737074807AB0706
:1042B000B0E809F0BB0B802DBF01FF2793585F4F7B
:1042C0003AF09E3F510578F00C94FE210C9449225F
:1042D0005F3FE4F3983ED4F3869577956795B7955D
:1042E000F7959F5FC9F7880F911D9695879597F968
:1042F0000895E1E0660F771F881FBB1F62177307E1
:104300008407BA0720F0621B730B840BBA0BEE1FF5
:1043100088F7E09508950E9492216894B1110C9459
:10432000492208950E942E2288F09F5798F0B92FB5
:104330009927B751B0F0E1F0660F771F881F991FDA
:104340001AF0BA95C9F714C0B13091F00E94482212
:10435000B1E008950C944822672F782F8827B85F22
:1043600039F0B93FCCF3869577956795B395D9F732
:104370003EF490958095709561957F4F8F4F9F4F3C
:104380000895E89409C097FB3EF490958095709548
:1043900061957F4F8F4F9F4F9923A9F0F92F96E991
:1043A000BB279395F695879577956795B795F11106
:1043B000F8CFFAF4BB0F11F460FF1BC06F5F7F4FA3
:1043C0008F4F9F4F16C0882311F096E911C07723B5
:1043D00021F09EE8872F762F05C0662371F096E8BE
:1043E000862F70E060E02AF09A95660F771F881F8D
:1043F000DAF7880F9695879597F9089597F99F674B
:1044000080E870E060E008959FEF80EC089500245C
:104410000A941616170618060906089500240A9429
:1044200012161306140605060895092E0394000CAF
:1044300011F4882352F0BB0F40F4BF2B11F460FF3E
:1044400004C06F5F7F4F8F4F9F4F089557FD905867
:10445000440F551F59F05F3F71F04795880F97FB48
:10446000991F61F09F3F79F0879508951216130602
:104470001406551FF2CF4695F1DF08C01616170631
:104480001806991FF1CF8695710561050894089566
:10449000E894BB2766277727CB0197F908950E94F8
:1044A00062220C9415220E94072238F00E940E22EC
:1044B00020F0952311F00C94FE210C940422112479
:1044C0000C9449220E94262270F3959FC1F3950F08
:1044D00050E0551F629FF001729FBB27F00DB11D88
:1044E000639FAA27F00DB11DAA1F649F6627B00D18
:1044F000A11D661F829F2227B00DA11D621F739F01
:10450000B00DA11D621F839FA00D611D221F749F0E
:104510003327A00D611D231F849F600D211D822F55
:10452000762F6A2F11249F5750409AF0F1F088237C
:104530004AF0EE0FFF1FBB1F661F771F881F9150A9
:104540005040A9F79E3F510580F00C94FE210C9439
:1045500049225F3FE4F3983ED4F3869577956795BB
:10456000B795F795E7959F5FC1F7FE2B880F911DD3
:104570009695879597F908950E949D20332312F40C
:104580008A1B9B0B0C94C6220E949D20B7FF0895A6
:10459000821B930B0895EE0FFF1F0590F491E02D01
:1045A000099481E090E0F8940C94D622F894FFCF1F
:1045B0000100003F013F01EFEF0060C0A0C0A0007C
:1045C0006088E848282810001018100000000041FA
:1045D00006A105CE058E06FF05DD05F105000000EC
:1045E000003909A105C514C414EE11A005DE0BB6EF
:1045F0000BD20BC60BE50BA0056911FE06FF13617C
:1046000014751322136A0A0B0A0D0A0044617368B9
:10461000626F61726420466F722045560050726F5F
:104620006A6563740A0A2020202020202020202090
:1046300020206279004368697020536F756C2054A4
:1046400065636800436C69636B20466F7220646524
:104650007461696C00546F75636820627574746F5F
:104660006E20707265737300426174746572792094
:10467000566F6C746167653A0043757272656E744B
:104680003A0052656D61696E696E672043617061C1
:06469000636974793A0031
:107E0000112484B714BE81FFF0D085E080938100F7
:107E100082E08093C00088E18093C10086E0809377
:107E2000C20080E18093C4008EE0C9D0259A86E02C
:107E300020E33CEF91E0309385002093840096BBD3
:107E4000B09BFECF1D9AA8958150A9F7CC24DD24C4
:107E500088248394B5E0AB2EA1E19A2EF3E0BF2EE7
:107E6000A2D0813461F49FD0082FAFD0023811F036
:107E7000013811F484E001C083E08DD089C08234E0
:107E800011F484E103C0853419F485E0A6D080C0E4
:107E9000853579F488D0E82EFF2485D0082F10E0AE
:107EA000102F00270E291F29000F111F8ED06801E7
:107EB0006FC0863521F484E090D080E0DECF843638
:107EC00009F040C070D06FD0082F6DD080E0C81688
:107ED00080E7D80618F4F601B7BEE895C0E0D1E017
:107EE00062D089930C17E1F7F0E0CF16F0E7DF06D8
:107EF00018F0F601B7BEE89568D007B600FCFDCFD4
:107F0000A601A0E0B1E02C9130E011968C91119780
:107F100090E0982F8827822B932B1296FA010C0160
:107F200087BEE89511244E5F5F4FF1E0A038BF0790
:107F300051F7F601A7BEE89507B600FCFDCF97BE46
:107F4000E89526C08437B1F42ED02DD0F82E2BD052
:107F50003CD0F601EF2C8F010F5F1F4F84911BD097
:107F6000EA94F801C1F70894C11CD11CFA94CF0C13
:107F7000D11C0EC0853739F428D08EE10CD085E9AC
:107F80000AD08FE07ACF813511F488E018D01DD067
:107F900080E101D065CF982F8091C00085FFFCCF94
:107FA0009093C60008958091C00087FFFCCF809118
:107FB000C00084FD01C0A8958091C6000895E0E648
:107FC000F0E098E1908380830895EDDF803219F02E
:107FD00088E0F5DFFFCF84E1DECF1F93182FE3DFCA
:107FE0001150E9F7F2DF1F91089580E0E8DFEE27F6
:047FF000FF270994CA
:027FFE00040479
:00000001FF
