:020000040000FA
:100000000C945D000C9485000C9485000C94850084
:100010000C9485000C9485000C9485000C9485004C
:100020000C9485000C9485000C9485000C9485003C
:100030000C9485000C9485000C9485000C9485002C
:100040000C94F9030C9485000C9469040C944304FB
:100050000C9485000C9485000C9485000C9485000C
:100060000C9485000C94850000000008000201003B
:100070000003040700000000000000000000000072
:10008000250028002B0000000000240027002A0083
:10009000040404040404040402020202020203032E
:1000A0000303030301020408102040800102040836
:1000B00010200102040810209B0411241FBECFEF62
:1000C000D8E0DEBFCDBF22E0A0E9B1E001C01D92C3
:1000D000AE35B207E1F711E0A0E0B1E0EEE4F0E107
:1000E00002C005900D92A039B107D9F710E0CDE517
:1000F000D0E004C02197FE010E941F08CC35D10733
:10010000C9F70E94E5040C9425080C94000090E0C7
:10011000FC01EC55FF4F249180579F4FFC018491C7
:10012000882399F090E0880F991FFC01EA57FF4F50
:10013000A591B491FC01E458FF4F859194918FB73C
:10014000F894EC91E22BEC938FBF089590E0FC01C2
:10015000E859FF4F2491FC01EC55FF4F3491FC010D
:10016000E057FF4FE491EE23C9F0222339F023300A
:1001700001F1A8F4213019F1223029F1F0E0EE0F5D
:10018000FF1FE458FF4FA591B4918FB7F894EC91FD
:10019000611126C030953E233C938FBF08952730D0
:1001A000A9F02830C9F0243049F7809180008F7D74
:1001B00003C0809180008F7780938000DFCF84B56B
:1001C0008F7784BDDBCF84B58F7DFBCF8091B0006E
:1001D0008F778093B000D2CF8091B0008F7DF9CF20
:1001E0003E2BDACF3FB7F8948091A3019091A40100
:1001F000A091A501B091A60126B5A89B05C02F3FEF
:1002000019F00196A11DB11D3FBFBA2FA92F982F3C
:100210008827BC01CD01620F711D811D911D42E037
:10022000660F771F881F991F4A95D1F708958F92FF
:100230009F92AF92BF92CF92DF92EF92FF924B01CB
:100240005C010E94F2006B017C010E94F2006C19BB
:100250007D098E099F09683E734081059105A8F3C9
:1002600021E0821A9108A108B10888EEC80E83E047
:10027000D81EE11CF11C81149104A104B10429F7DA
:10028000FF90EF90DF90CF90BF90AF909F908F90B6
:100290000895AF92BF92CF92DF92EF92FF920F93A9
:1002A0001F93CF93DF936C017B018B01040F151F0C
:1002B000EB015E01AE18BF08C017D10759F0699174
:1002C000D601ED91FC910190F081E02DC6010995D8
:1002D000892B79F7C501DF91CF911F910F91FF9085
:1002E000EF90DF90CF90BF90AF900895FC01538DB9
:1002F000448D252F30E0842F90E0821B930B541700
:1003000010F0CF96089501970895FC01918D828D8C
:10031000981761F0A28DAE0FBF2FB11D5D968C9125
:10032000928D9F5F9F73928F90E008958FEF9FEF64
:100330000895FC01918D828D981731F0828DE80F20
:10034000F11D858D90E008958FEF9FEF0895FC01DA
:10035000918D228D892F90E0805C9F4F821B9109A7
:100360008F739927089587EA91E00E94A70121E001
:10037000892B09F420E0822F089580E090E0892BFA
:1003800029F00E94B30181110C9400000895FC0132
:10039000A48DA80FB92FB11DA35ABF4F2C91848DE6
:1003A00090E001968F739927848FA689B7892C9343
:1003B000A089B1898C91837080648C93938D848D96
:1003C000981306C00288F389E02D80818F7D808399
:1003D0000895EF92FF920F931F93CF93DF93EC0159
:1003E00081E0888F9B8D8C8D98131AC0E889F989DC
:1003F000808185FF15C09FB7F894EE89FF896083DF
:10040000E889F98980818370806480839FBF81E05F
:1004100090E0DF91CF911F910F91FF90EF900895A1
:10042000F62E0B8D10E00F5F1F4F0F731127E02E7C
:100430008C8D8E110CC00FB607FCFACFE889F989B4
:10044000808185FFF5CFCE010E94C701F1CFEB8DF2
:10045000EC0FFD2FF11DE35AFF4FF0829FB7F89488
:100460000B8FEA89FB8980818062CFCFCF93DF93A6
:10047000EC01888D8823B9F0AA89BB89E889F989BC
:100480008C9185FD03C0808186FD0DC00FB607FCF1
:10049000F7CF8C9185FFF2CF808185FFEDCFCE0124
:1004A0000E94C701E9CFDF91CF910895089590E0B0
:1004B00080E00895CF93DF93EC0160E08E810E948D
:1004C000A60061E08E810E94A60060E08E810E94FD
:1004D000A6008BE891E00197F1F7DF91CF910895A5
:1004E000CF92DF92EF92FF920F931F93CF93DF9300
:1004F0006C017C0187E0E80EF11CD0E0C0E0062F23
:1005000010E0B8010C2E02C0759567950A94E2F7C9
:100510006170F70181917F010E94A6002196C4308D
:10052000D10579F7C601DF91CF911F910F91FF900F
:10053000EF90DF90CF900C945A02CF92DF92EF921F
:10054000FF920F931F93CF93DF93EC01F62E642F4E
:100550008C810E94A6008D818F3F19F060E00E947F
:10056000A6000F2D10E08F8584FF25C06E0187E067
:10057000C80ED11CF12CE12CB8010E2C02C07595CF
:1005800067950A94E2F76170F60181916F010E940C
:10059000A600FFEFEF1AFF0A88E0E816F10461F702
:1005A000CE01DF91CF911F910F91FF90EF90DF90DF
:1005B000CF900C945A02B80184E0759567958A959E
:1005C000E1F7CE010E9470026F2DCE01DF91CF9135
:1005D0001F910F91FF90EF90DF90CF900C947002DD
:1005E00040E0682F84E492E00C949D02CF93DF9367
:1005F000823029F490915302986090935302809333
:1006000057021092580280E48093590280E180934F
:100610005A0280E580935B02809148020E94870025
:10062000809149028F3F11F00E94870080914A0219
:100630000E948700C4E4D2E09E012454324080919D
:10064000530284FD0AC084E090E021962817390700
:100650003CF48E810E948700EFCF88E090E0F5CFD8
:100660008BE39DE00197F1F760E0809148020E94E2
:10067000A60060E080914A020E94A6008091490293
:100680008F3F19F060E00E94A6008091530284FD24
:1006900039C063E084E492E00E947002CBE4D6E4C7
:1006A000CE010197F1F763E084E492E00E947002CA
:1006B0002197F1F763E084E492E00E94700283E501
:1006C00092E00197F1F762E084E492E00E94700208
:1006D0008091530280620E94F00284E08093540271
:1006E0008CE00E94F00281E00E94F0028BE39FE127
:1006F0000197F1F782E08093550286E0DF91CF9178
:100700000C94F00280620E94F0028BE496E4019760
:10071000F1F78091530280620E94F00283E592E03B
:100720000197F1F78091530280620E94F002D0CFCE
:1007300041E00E949D0281E090E00895FB0101905C
:100740000020E9F73197AF01461B570BDC01ED9113
:10075000FC910280F381E02D09948F929F92AF92D9
:10076000BF92EF92FF920F931F93CF93DF93CDB77A
:10077000DEB7A1970FB6F894DEBF0FBECDBF7C01E8
:10078000FA01CB0119A2223008F42AE08E010F5D94
:100790001F4F822E912CB12CA12CBF01A5019401D9
:1007A0000E94AC07F901CA016A300CF5605DD801FE
:1007B0006E938D01232B242B252B79F790E080E07D
:1007C000109721F0BD01C7010E949E03A1960FB6AC
:1007D000F894DEBF0FBECDBFDF91CF911F910F9177
:1007E000FF90EF90BF90AF909F908F900895695CBD
:1007F000DECF1F920F920FB60F9211242F933F93CB
:100800008F939F93AF93BF9380919F019091A0018D
:10081000A091A101B091A20130919E0123E0230F8C
:100820002D3758F50196A11DB11D20939E0180938F
:100830009F019093A001A093A101B093A201809188
:10084000A3019091A401A091A501B091A6010196E8
:10085000A11DB11D8093A3019093A401A093A501B4
:10086000B093A601BF91AF919F918F913F912F912E
:100870000F900FBE0F901F90189526E8230F029639
:10088000A11DB11DD2CF1F920F920FB60F9211244E
:100890002F933F934F935F936F937F938F939F9388
:1008A000AF93BF93EF93FF9387EA91E00E94C70154
:1008B000FF91EF91BF91AF919F918F917F916F9138
:1008C0005F914F913F912F910F900FBE0F901F900E
:1008D00018951F920F920FB60F9211242F938F939A
:1008E0009F93EF93FF93E091B701F091B80180815E
:1008F000E091BD01F091BE0182FD1BC0908180910D
:10090000C0018F5F8F732091C101821741F0E09188
:10091000C001F0E0E955FE4F958F8093C001FF9133
:10092000EF919F918F912F910F900FBE0F901F907D
:1009300018958081F4CFE7EAF1E01382128288EE05
:1009400093E0A0E0B0E084839583A683B78384E03E
:1009500091E09183808385EC90E09587848784EC97
:1009600090E09787868780EC90E0918B808B81EC7C
:1009700090E0938B828B82EC90E0958B848B86EC5D
:1009800090E0978B868B118E128E138E148EE4E47A
:10099000F2E01382128286E191E0918380838DE000
:1009A00084838FEF85838CE0868385E087838AE06C
:1009B000808783E0818782E082871386148615868C
:1009C0001686178681E00C94F602789484B58260CE
:1009D00084BD84B5816084BD85B5826085BD85B5E3
:1009E000816085BD80916E00816080936E00109261
:1009F00081008091810082608093810080918100DC
:100A0000816080938100809180008160809380006C
:100A10008091B10084608093B1008091B0008160CA
:100A20008093B00080917A00846080937A008091F6
:100A30007A00826080937A0080917A00816080934E
:100A40007A0080917A00806880937A001092C100C9
:100A5000E091B701F091B80182E08083E091B301A9
:100A6000F091B4011082E091B501F091B60180E1FE
:100A700080831092BF01E091BB01F091BC0186E040
:100A80008083E091B901F091BA0180818061808317
:100A9000E091B901F091BA01808188608083E09192
:100AA000B901F091BA01808180688083E091B90139
:100AB000F091BA0180818F7D808382E00E94F602EE
:100AC000CBE3DFE100E010E06EE171E087EA91E066
:100AD0000E949E0361E371E087EA91E00E949E0319
:100AE0006AE070E080E090E00E94170187EA91E000
:100AF0000E94A70118161906CCF784E9C82E81E0D8
:100B0000D82EF12CE12C2FB7F89480919F01909171
:100B1000A001A091A101B091A2012FBF8093AF01CC
:100B20009093B001A093B101B093B20187EA91E034
:100B30000E94850197FFCDC02FB7F89480919F0147
:100B40009091A001A091A101B091A2012FBF40916D
:100B5000AF015091B0016091B1017091B201841B5D
:100B6000950BA60BB70B4091AB015091AC01609176
:100B7000AD017091AE0184179507A607B707B0F2D3
:100B8000F701EC56FE4F108264E371E087EA91E0D2
:100B90000E949E0364E971E087EA91E00E949E034F
:100BA00040E150E070E060E084E991E00E94790665
:100BB00060939001709391018093920190939301BF
:100BC0006AE471E087EA91E00E949E03C090900180
:100BD000D0909101E0909201F09093012AE0B7014A
:100BE000A601F7FE0DC06DE287EA91E00E94E901DF
:100BF00044275527BA014C195D096E097F092AE07F
:100C000087EA91E00E94AD0381E00E94F002CE01EC
:100C10000197F1F7E1E0809157028111E0E0E19561
:100C2000F0E0EC5BFD4F848980680E94F00265E78C
:100C300071E084E492E00E949E0364E971E084E440
:100C400092E00E949E03E0915702E23008F03FC01C
:100C5000E150F0E0EC5BFD4F848980680E94F00277
:100C600064E871E084E492E00E949E03C0909001E9
:100C7000D0909101E0909201F09093012AE0B701A9
:100C8000A601F7FE0EC041E06DE284E492E00E940E
:100C90009D0244275527BA014C195D096E097F0949
:100CA0002AE084E492E00E94AD0364E670E080E014
:100CB00090E00E9417010115110509F405CF0E946B
:100CC000B301882309F400CF0E940000FDCEE1E0CB
:100CD000C0CF8A30910509F453CFF60181936F019B
:100CE000FFEFEF1AFF0A89E0E816F10409F00BCFD5
:100CF00047CFB0E0A0E0EFE7F6E00C94DA075C0144
:100D00006B017A016115710519F0FB0191838083F4
:100D1000E114F10451F0C7010297839730F040E0ED
:100D200030E020E090E072C05E01E5012196F5011F
:100D30001081812F90E00E949007892BA9F71D3226
:100D400001F52196F501118101E0E114F10409F4A6
:100D5000DAC0F0E1EF16F10409F082C0103359F463
:100D600088818F7D883509F076C0198122960260CE
:100D7000F0E1EF2EF12C812C912CA12C88E0B82EE3
:100D80008CC01B3221F4E5012296F501118100E0AF
:100D9000DCCFEAE0EE16F10409F4BBC0F0E1EF1697
:100DA000F10409F06DC0E7CF78E0E72EF12C812C3B
:100DB000912CA12C60E1B62E70C03FE9310F3A3181
:100DC00028F439EA332E80C021E09AC0302F3170E8
:100DD000C114D10431F0222309F12197F601D18306
:100DE000C08327FF21C060E070E080E090E831110F
:100DF00004C06FEF7FEF8FEF9FE722E230E0309388
:100E00005D0220935C02462F372F282F642F732F0B
:100E1000822FCDB7DEB7E1E10C94F60701FF04C0E5
:100E20002297F601D183C083332341F090958095BA
:100E3000709561957F4F8F4F9F4FE5CF97FFE3CF21
:100E400082E290E090935D0280935C026FEF7FEF0F
:100E50008FEF9FE7D8CF10E3E114F10409F4A4CF9A
:100E600028E0E216F10409F4A2CF0CF092CF812C15
:100E7000912CA12CE0E4BE2E82E0E816F10469F08A
:100E800060E070E080E090E897010F2C000C440BCC
:100E9000550B0E94AC0749015A0120E060E070E068
:100EA000CB0127010F2C000C66087708FE0150EDDE
:100EB000352E310E39E0331540F43FEB310F3A3126
:100EC00008F07BCF49EC342E310E3E141F040CF099
:100ED0007DCF27FD15C086169706A806B90678F0BF
:100EE000A30192010E949C07630D711D811D911D3C
:100EF00061307105810520E8920708F465CF2FEF76
:100F000021961081D3CF103309F42ACF2AE0E22EA4
:100F1000F12C9CEC892E982CA82C9CE0B92EBDCFEE
:100F200091110C949907803219F089508550C8F7B7
:100F30000895992788270895DB018F939F930E9436
:100F4000CE07BF91AF91A29F800D911DA39F900DE1
:100F5000B29F900D11240895A1E21A2EAA1BBB1B6B
:100F6000FD010DC0AA1FBB1FEE1FFF1FA217B30775
:100F7000E407F50720F0A21BB30BE40BF50B661F8B
:100F8000771F881F991F1A9469F76095709580954F
:100F900090959B01AC01BD01CF0108950E941008FE
:100FA000A59F900DB49F900DA49F800D911D1124BD
:100FB00008952F923F924F925F926F927F928F92FD
:100FC0009F92AF92BF92CF92DF92EF92FF920F93D8
:100FD0001F93CF93DF93CDB7DEB7CA1BDB0B0FB6E2
:100FE000F894DEBF0FBECDBF09942A88398848889F
:100FF0005F846E847D848C849B84AA84B984C88435
:10100000DF80EE80FD800C811B81AA81B981CE0F2B
:10101000D11D0FB6F894DEBF0FBECDBFED01089510
:10102000A29FB001B39FC001A39F700D811D112429
:10103000911DB29F700D811D1124911D0895EE0F19
:10104000FF1F0590F491E02D0994F894FFCF000064
:101050000000E901490176013602A70185019901E5
:101060000000000098034901570256020A0A0A6567
:101070006E746572206865782076616C7565000D08
:101080000A000A456E746572204865782076616CA6
:1010900075652069733A20000A436F6E7665727435
:1010A000656420737472696E672062792062756965
:1010B0006C64696E2066756E6374696F6E20697307
:1010C0003A2000656E74657268657876616C756546
:0E10D0003A006465632076616C75653A200015
:107E0000112484B714BE81FFF0D085E080938100F7
:107E100082E08093C00088E18093C10086E0809377
:107E2000C20080E18093C4008EE0C9D0259A86E02C
:107E300020E33CEF91E0309385002093840096BBD3
:107E4000B09BFECF1D9AA8958150A9F7CC24DD24C4
:107E500088248394B5E0AB2EA1E19A2EF3E0BF2EE7
:107E6000A2D0813461F49FD0082FAFD0023811F036
:107E7000013811F484E001C083E08DD089C08234E0
:107E800011F484E103C0853419F485E0A6D080C0E4
:107E9000853579F488D0E82EFF2485D0082F10E0AE
:107EA000102F00270E291F29000F111F8ED06801E7
:107EB0006FC0863521F484E090D080E0DECF843638
:107EC00009F040C070D06FD0082F6DD080E0C81688
:107ED00080E7D80618F4F601B7BEE895C0E0D1E017
:107EE00062D089930C17E1F7F0E0CF16F0E7DF06D8
:107EF00018F0F601B7BEE89568D007B600FCFDCFD4
:107F0000A601A0E0B1E02C9130E011968C91119780
:107F100090E0982F8827822B932B1296FA010C0160
:107F200087BEE89511244E5F5F4FF1E0A038BF0790
:107F300051F7F601A7BEE89507B600FCFDCF97BE46
:107F4000E89526C08437B1F42ED02DD0F82E2BD052
:107F50003CD0F601EF2C8F010F5F1F4F84911BD097
:107F6000EA94F801C1F70894C11CD11CFA94CF0C13
:107F7000D11C0EC0853739F428D08EE10CD085E9AC
:107F80000AD08FE07ACF813511F488E018D01DD067
:107F900080E101D065CF982F8091C00085FFFCCF94
:107FA0009093C60008958091C00087FFFCCF809118
:107FB000C00084FD01C0A8958091C6000895E0E648
:107FC000F0E098E1908380830895EDDF803219F02E
:107FD00088E0F5DFFFCF84E1DECF1F93182FE3DFCA
:107FE0001150E9F7F2DF1F91089580E0E8DFEE27F6
:047FF000FF270994CA
:027FFE00040479
:00000001FF
